:0505E5004202FD0000D0
:0A000E00E4FF1213411210F880FB0A
:1011C9005A5A434C204D4F444255532026204441FE
:1011D9004320446973706C61792056657269736F35
:0E11E9006E20323032322E352E32310D0A0099
:101243001213131213217F807E25120EECD2AFE40A
:10125300FF1212AF1212C67BFF7A1179C902116510
:1008D00053797374656D53746174655F49646C65B5
:1008E0000053797374656D53746174655F5265610B
:1008F00064790053797374656D53746174655F57DF
:10090000616B6555700053797374656D53746174D0
:10091000655F4F70656E0053797374656D537461D4
:1009200074655F4E6F726D616C0053797374656DA1
:1009300053746174655F506F7765724F66660053DC
:10094000797374656D53746174655F5374616E641B
:1009500042790053797374656D53746174655F47B0
:100960006F546F536C6565700053797374656D5384
:10097000746174655F536C65657000537973746559
:100980006D53746174655F44656570536C65657023
:010990000066
:1005EA004202AC00005E028EFF08D0FF08E1FF085D
:1005FA00F3FF0906FF0917FF092AFF093FFF0953FD
:06060A00FF0969FF097BF6
:10107C009002D3E0C39402748094805003E004F097
:10108C009002ADE004F070069002ACE004F0900227
:10109C00ACE0FEA3E0FFEE3395E0FDFC74FFFBFA41
:1010AC00F9787FC31201D070069002ACF0A3F02245
:09132F009002ACE0FEA3E0FF22F5
:091338009002ACEEF0A3EFF022EC
:10099100EF8EF01201FA09E3000109E3000209E315
:1009A100000309E3000409E3000509E3000609E384
:1009B100000709E3000809E3000909E9000A09EF52
:1009C100001409F5003209FB00640A0100C80A0796
:1009D10001F40A0D03E80A1307D00A19138800006D
:1009E1000A1FE49002D3F022E49002DCF022E490AA
:1009F10002DDF022E49002DEF022E49002DFF02238
:100A0100E49002E0F022E49002E1803EE49002E30F
:100A11008038E49002E58032E49002E7802CE49093
:100A210002D3F0A3F0A3F0A3F0A3F0A3F0A3F0A3EB
:100A3100F0A3F0A3F0A3F0A3F0A3F0A3F0A3F0A31D
:0E0A4100F0A3F0A3F0A3F0A3F0A3F0A3F02223
:10032100E49002B1F0EF8EF01201FA0378000104BB
:10033100D1000204E1000304F100040501000505F8
:10034100100006051F0007052E0008053D000905E0
:100351004C000A055B001405670032057300640553
:100361007F00C8058C01F405A003E805B407D0059A
:10037100C61388000005DF9002D3E0640260030227
:1003810005DF7F01FE1209919002B17401F0900224
:10039100D4E0C39402748094805003E004F090028E
:1003A100D5E0C39403748094805003E004F090027C
:1003B100D6E0C39404748094805003E004F090026A
:1003C100D7E0C39405748094805003E004F0900258
:1003D100D8E0C39406748094805003E004F0900246
:1003E100D9E0C39407748094805003E004F0900234
:1003F100DAE0C39408748094805003E004F0900222
:10040100DBE0C39409748094805003E004F090020F
:10041100DCE0C3940A748094805003E004F09002FD
:10042100DDE0C39414748094805003E004F09002E2
:10043100DEE0C39432748094805003E004F09002B3
:10044100DFE0C39464748094805003E004F0900270
:10045100E0E0C394C8748094805003E004F0C3903A
:1004610002E2E094F49002E1E09401500CA3E00474
:10047100F070069002E1E004F0C39002E4E094E839
:100481009002E3E09403500CA3E004F070069002A4
:10049100E3E004F0C39002E6E094D09002E5E0943A
:1004A10007500CA3E004F070069002E5E004F0C3ED
:1004B1009002E8E094889002E7E09413400302057B
:1004C100DFA3E004F070069002E7E004F00205DF2C
:1004D1009002D4E0640260030205DF7F0202058915
:1004E1009002D5E0640360030205DF7F0302058902
:1004F1009002D6E0640460030205DF7F03020589F0
:100501009002D7E0640560030205DF7F05807990E2
:1005110002D8E0640660030205DF7F06806A90026C
:10052100D9E0640760030205DF7F07805B9002DA90
:10053100E0640860030205DF7F08804C9002DBE085
:10054100640960030205DF7F09803D9002DCE064FD
:100551000A60030205DF7F0A802E9002DDE0641449
:10056100707C7F1480229002DEE0643270707F32F2
:1005710080169002DFE0646470647F64800A9002F8
:10058100E0E064C870587FC8FE804A9002E1E064F0
:10059100017004A3E064F470457FF47E018036901D
:1005A10002E3E064037004A3E064E870317FE87E55
:1005B1000380229002E5E0B40724A3E0B4D01F7FBA
:1005C100D07E0780109002E7E0B41312A3E0B48854
:1005D1000D7F887E131209919002B17401F090028F
:0305E100B1E0FF87
:0105E40022F4
:061341009002CDEFF02246
:061347009002CEEFF0223F
:1010F8009002CDE014601624FD60232404702212AF
:10110800001874FFFFFE1209917F01800C12004144
:1011180074FFFFFE1209917F041213418003120B22
:07112800759002CDE0FF22EB
:030018000212438E
:090610004102F7004202F800006B
:100B750012127E1212227F017E00120321EF640100
:100B850070787F0AFE120321EF640170359002F739
:100B9500E0FF04F0C3EF9414748094804002E4F005
:100BA5009002F8E475F001120182FEC3E5F09405A8
:100BB500EE9400400D9002587401F0E49002F8F0B4
:100BC500A3F07F147E001203217F327E00120321E1
:100BD5007F647E001203217FC87E001203217FF40B
:100BE5007E011203217FE87E031203217FD07E0759
:0A0BF5001203217F887E13120321F2
:010BFF0022D3
:01004100229C
:100619004202E900004202EB00004202ED00004202
:0406290002EF0000DC
:03000B000212637B
:10126300C0E0C0F0C083C082C0D075D00812107C2B
:0B127300D0D0D082D083D0F0D0E03289
:03001B0002001EC2
:10001E00C0E0C083C0829002FFE06401700E9002C7
:10002E00EEE004F070069002EDE004F0D082D08392
:03003E00D0E032DD
:0E131300E4F589758A33758CFED28CD2A9223E
:0E132100E4F589758B66758DFCD28ED2AB22F9
:10062D0060350258010000000000000000000000CD
:10063D0000000000000000000000000000000000AD
:10064D00000000000000000000000000000000009D
:09065D0000000000000000000094
:100EEC009002B0EEF0A3EFF053BAFE759ADA9002CE
:100EFC00B0E0FEA3E0FBAA06E4F9F8FF7E307D2A01
:100F0C00FC121038EFF404F5D79002B0E0FEA3E029
:100F1C00FBAA06E4F9F8FF7E307D2AFC121038C3D8
:100F2C00E49FFFE49EFE74019DFDE49CFC78081296
:0B0F3C0001E68FD6758E1475AF012200
:1012DC002001FDEF30D005439A088003539AF7D2D2
:0412EC0001F59B224B
:101165009002B0EBF0A3EAF0A3E9F09002B0E0FB47
:10117500A3E0FAA3E0F912013C60179002B0A3E4E2
:1011850075F001120182A9F0FA12013CFF1212DC7E
:0311950080D922DC
:030043000211980F
:0D119800C0E0C0F0C083C082C0D075D00898
:1011A500E59A30E00A539AFEAF9B120E85D200E510
:0911B5009A30E105539AFDC201D4
:0B11BE00D0D0D082D083D0F0D0E0323F
:100FF200900258E06401701DEF6401701890025B6A
:10100200EFF090025AE004F09002597401F0E4907B
:101012000258F0801A900259E064017018A3E0FEB1
:1010220004F0745B2EF582E43402F583EFF0E49071
:0610320002F8F0A3F02219
:1010BC00E4FBF582F583EF6DFDEBC394087480942B
:1010CC00805024758300ED5401F582ECC313FCEDC4
:1010DC0013FDEC547FFCE58264017008EC64A0FC09
:0B10EC00ED6401FD0B80D2AE04AF05E7
:0110F70022D6
:100E12009002C4EBF0A3EAF0A3E9F0A3ECF0A3ED97
:010E2200F0DF
:100E230074FF9002CBF0A3F0E49002C9F0A3F0901A
:100E330002C7E0FEA3E0FFA3E0FCA3E0FDC39FEC39
:100E43009E50369002C4E0FBA3E0FAA3E0F98D8242
:100E53008C83120155FF9002CBE0FCA3E0FD12103E
:100E6300BC9002CBEEF0A3EFF09002CAE004F07066
:100E7300BE9002C9E004F080B69002CBE0FEA3E08E
:010E8300FF6F
:010E8400224B
:100A4F009002F1EBF0A3EAF0A3E9F0A3ECF0A3ED31
:010A5F00F0A6
:100A6000E4FFEFFD9002F4E0FAA3E0FBD39DEA94EB
:100A70000040030F80ECD3EB9404EA940050037F12
:100A8000FF229002F1E0FBA3E0FAA3E0F99002F567
:100A9000E024FEFD9002F4E034FFFC120E12AC06DE
:100AA000EC9002F6F09002F1E0FBA3E0FAA3E0F98B
:100AB0009002F5E024FEFD9002F4E034FF8D82F513
:100AC00083120155B5071C9002F5E024FFFF900248
:100AD000F4E034FF8F82F583120155FF9002F6E0B7
:080AE0006F60037FFF227F001D
:010AE80022EB
:10066600606401F432499876000000000000000042
:100676000000000000000000000000000000000074
:100686000000000000000000000000000000000064
:100696000000000000000000000000000000000054
:1006A6000000000000000000000000000000000044
:1006B6000000000000000000000000000000000034
:1006C600000000000000000060F0010400000000CF
:1006D6000000000000000000000000000000000014
:1006E6000000000000000000000000000000000004
:1006F60000000000000000000000000000000000F4
:1007060000000000000000000000000000000000E3
:1007160000000000000000000000000000000000D3
:1007260000000000000000000000000000000000C3
:1007360000000000000000000000000000000000B3
:1007460000000000000000000000000000000000A3
:100756000000000000000000000000000000000093
:100766000000000000000000000000000000000083
:100776000000000000000000000000000000000073
:100786000000000000000000000000000000000063
:100796000000000000000000000000000000000053
:1007A6000000000000000000000000000000000043
:0C07B60000000000000000000000000037
:10127E007D057C00E4FF121297EF6401700A900066
:09128E000004F0E4FF1213022237
:10112F00AD07AC069002C3E025E0FF9002C2E033AA
:10113F00FEC006C007C001ED25E0FFEC33FE74F4DE
:10114F002FF974013EA801FC7D01D001D007D00614
:06115F001201167F0022C0
:100FA0009002BEEBF0A3EAF0A3E9F0AD07AC069027
:100FB00002C2E025E0FF9002C1E033FEC006C00798
:100FC000ED25E0FFEC33FE74F42FF974013EFA7B5B
:100FD00001C003C0029002BEE0FBA3E0FAA3E0F868
:100FE000AC02AD03D002D003D007D0061201167FA9
:020FF0000022DD
:100E85009002AEEFF0900001E06401702A9002AE8E
:100E9500E0FE640160037FFF22E4900001F0900012
:100EA50000F0900002F0E0FF04F074032FF582E4F7
:100EB5003400F583EE8027900002E0C394327480FD
:100EC500948040037F00229002AEE0FF900002E094
:100ED500FE04F074032EF582E43400F583EFF0E4AC
:070EE500FF1212AF7F002293
:080F47007B017A0079037C00B4
:100F4F009002C4EBF0A3EAF0A3E9F0A3ECF0A3ED59
:010F5F00F0A1
:100F6000E4A3F0A3F09002C7E0FEA3E0FFA3E0FC3F
:100F7000A3E0FDC39FEC9E50269002C4E0FBA3E0DB
:100F8000FAA3E0F98D828C83120155FF1212DC90D6
:0F0F900002CAE004F070CE9002C9E004F080C6FF
:010F9F00222F
:100D14009002B6EBF0A3EAF0A3E9F0A3ECF0A3EDA4
:010D2400F0DE
:100D2500C39408EC940050037FFF229002B6E0FBC9
:100D3500A3E0FAA3E0F99002BAE024FEFD9002B91F
:100D4500E034FFFC120E12AC06EC9002BBF09002F0
:100D5500B6E0FBA3E0FAA3E0F99002BAE024FEFDB9
:100D65009002B9E034FF8D82F583120155B5071C59
:100D75009002BAE024FFFF9002B9E034FF8F82F5BC
:100D850083120155FF9002BBE06F60037FFE227F57
:010D9500005D
:010D9600223A
:1011F700E4FB90000304F0EF4480A3F0A3EDF00BB1
:101207007A0079037D037C00120E12900006EFF03E
:0A121700EEA3F07D05120F477F00E3
:0112210022AA
:1007C7009002BCEBF0A3EAF0A3E9F0A3ECF0A3EDF1
:0107D700F031
:1007D800E4A3F0A3F0A3F090000304F0A37403F0E3
:1007E800ED25E0A3F0E49002C1F09002C1E0FFD350
:1007F8009002C0E09F9002BFE09400405B9002BC72
:10080800E0FBA3E0FAA3E0F99002C1E0FD75F00275
:10081800A4F58285F083120198E5F0FF75F002EDEA
:10082800A42406F582E5F03400F583EFF09002C1C8
:10083800E0FF75F002A4F58285F083120198FE7539
:10084800F002EFA42407F582E5F03400F583EEF01A
:100858009002C1E004F080927B017A007903900253
:10086800C0E025E0FF9002BFE033FEEF2403FDE483
:100878003EFC120E129002C2EEF0A3EFF0FD9002C1
:10088800C0E025E0FB9002BFE033FA74062BF58246
:1008980074003AF583EDF09002C2E0FF74072BF57F
:1008A8008274003AF583EFF07B017A0079039002B5
:1008B800C0E025E0FF9002BFE033FEEF2405FDE431
:0708C8003EFC120F4F7F0000
:0108CF002206
:080C8B009002B6ECF0A3EDF0BD
:100C9300900002120155FE9000031201557C0024BE
:100CA30000FFEC3E9002B8F0A3EFF09000041201B5
:100CB30055FE9000051201552400FFEC3EFE900204
:100CC300BAF0A3EFF0D39478EE940040037FFF22B1
:100CD3007E007FF07D007B017A0179041202279068
:100CE30002B8E0FEA3E0FF7B017A017904A3E0FDF3
:100CF300A3E09002C1CDF0A3EDF0120FA07B017A27
:100D03000179049002BAE0FCA3E0FD1207C77F005B
:010D130022BD
:100D97009002B1EBF0A3EAF0A3E9F0A3ECF0A3ED26
:010DA700F05B
:100DA800E4FF120D14EF60037FFF229002B1E0FB15
:100DB800A3E0FAA3E0F912013C640160037FFF227B
:100DC800900001120155FF6403600DEF6410600884
:100DD800EF640660037FFF2290000112015524FA98
:100DE8006011240370219002B4E0FCA3E0FD120C12
:100DF8008B80149002B1E0FBA3E0FAA3E0F9A3E032
:090E0800FCA3E0FD120C007F00C8
:010E110022BE
:1012F0009002FAEBF0A3EAF0A3E9F0900000740189
:02130000F022D9
:1012C6007E017F047D007B017A007900120227905F
:0612D60000017401F0228A
:10122200900000E0601AA37401F0FB7A007903A336
:10123200E0FD7C00120D97E4900002F0900000F0B7
:011242002289
:100C00009002B6EBF0A3EAF0A3E9F0A3ECF0A3EDB9
:010C1000F0F3
:100C11009002B6E0FBA3E0FAA3E0F9900002120112
:100C210055FE9000031201557C002400FFEC3E901C
:100C310002BBF0A3EFF07E007FF07D007B017A0123
:100C410079041202279002B6E0FBA3E0FAA3E0F9CF
:100C5100900004120155FE9000051201557C0024FC
:100C610000FFEC3E900104F0A3EFF09002BBE0FE28
:100C7100A3E0FF7B017A0179049002C2E4F0A304AE
:090C8100F012112F1200037F0094
:010C8A002247
:080003007D08120F477F002267
:0407C2004102FF00F1
:1012AF009002B0EFF09002FF7401F0C2A9E4900237
:0712BF00EDF0A3F0D2A9221B
:101302009002B1EFF0E49002FFF09002EDF0A3F052
:0113120022B8
:101297009002B1EFF0C39002EEE09D9002EDE09C6A
:0812A70040037F01227F0022B9
:03000000020AE908
:0C0AE900787FE4F6D8FD758120020B3008
:10004600E709F608DFFA8046E709F208DFFA803E9C
:1000560088828C83E709F0A3DFFA8032E309F60889
:10006600DFFA8078E309F208DFFA807088828C83F1
:10007600E309F0A3DFFA806489828A83E0A3F608A5
:10008600DFFA805889828A83E0A3F208DFFA804C7F
:1000960080D280FA80C680D4806980F28033801056
:1000A60080A680EA809A80A880DA80E280CA8033BF
:1000B60089828A83ECFAE493A3C8C582C8CCC58337
:1000C600CCF0A3C8C582C8CCC583CCDFE9DEE78007
:1000D6000D89828A83E493A3F608DFF9ECFAA9F086
:1000E600EDFB2289828A83ECFAE0A3C8C582C8CCDC
:1000F600C583CCF0A3C8C582C8CCC583CCDFEADEF5
:10010600E880DB89828A83E493A3F208DFF980CC56
:1001160088F0EF60010E4E60C388F0ED2402B4044F
:100126000050B9F582EB2402B4040050AF232345F6
:0601360082239000967385
:10013C00BB010689828A83E0225002E722BBFE02C1
:09014C00E32289828A83E49322F4
:10015500BB010CE58229F582E5833AF583E022505F
:1001650006E92582F8E622BBFE06E92582F8E222A9
:0D017500E58229F582E5833AF583E49322C3
:10018200A3F8E0C5F025F0F0E58215827002158330
:06019200E0C838F0E8228D
:10019800BB0110E58229F582E5833AF583E0F5F0A5
:1001A800A3E0225009E92582F886F008E622BBFE82
:1001B8000AE92582F8E2F5F008E222E5832AF583C8
:0801C800E993F5F0A3E993228D
:10103800C2D5E830E70FB2D5E4C39BFBE49AFAE4E3
:1010480099F9E498F8EC30E717B2D512106E12024D
:101058008FE4C39BFBE49AFAE499F9E498F88003D7
:1010680012028F30D50DE4C39FFFE49EFEE49DFD80
:04107800E49CFC22D6
:1001D000EB9FF5F0EA9E42F0E99D42F0EC6480C8A6
:0601E00064809845F02246
:1001E600E86010ECA2E713FCED13FDEE13FEEF132F
:0401F600FFD8F0221C
:1001FA00D083D082F8E4937012740193700DA3A394
:10020A0093F8740193F5828883E473740293B5F0CA
:0D021A00067403936860E9A3A3A3A380D832
:10022700EF4E6012EF60010EEDBB010B89828A83EE
:10023700F0A3DFFCDEFA2289F05007F709DFFCA9FB
:0C024700F022BBFEFCF309DFFCA9F02252
:100AF50002000EE493A3F8E493A34003F68001F209
:100B050008DFF48029E493A3F85407240CC8C33301
:100B1500C4540F4420C8834004F456800146F6DFD0
:100B2500E4800B01020408102040809005E5E47E76
:100B3500019360BCA3FF543F30E509541FFEE493C5
:100B4500A360010ECF54C025E060A840B8E493A38C
:100B5500FAE493A3F8E493A3C8C582C8CAC583CAB7
:100B6500F0A3C8C582C8CAC583CADFE9DEE780BE6F
:0107C6000032
:1002530075F008758200EF2FFFEE33FECD33CDCC62
:1002630033CCC58233C5829BED9AEC99E5829840E5
:100273000CF582EE9BFEED9AFDEC99FC0FD5F0D6C2
:10028300E4CEFBE4CDFAE4CCF9A88222B800C1B9EC
:100293000059BA002DEC8BF084CFCECDFCE5F0CB2A
:1002A300F97818EF2FFFEE33FEED33FDEC33FCEB63
:1002B30033FB10D703994004EB99FB0FD8E5E4F91E
:1002C300FA227818EF2FFFEE33FEED33FDEC33FC0B
:1002D300C933C910D7059BE99A4007EC9BFCE99AFF
:1002E300F90FD8E0E4C9FAE4CCFB2275F010EF2F44
:1002F300FFEE33FEED33FDCC33CCC833C810D70744
:100303009BEC9AE899400AED9BFDEC9AFCE899F87E
:0E0313000FD5F0DAE4CDFBE4CCFAE4C8F92211
:00000001FF
