:05076D0042007C0000C9
:0A000E00E4FF12000312090A80FB50
:100A10005A5A434C204D4F444255532026204441BE
:100A20004320446973706C61792056657269736FF5
:0E0A30006E20323032322E352E32310D0A0059
:10001E00120A52120A607F807E251207E5D2AF7B4C
:08002E00FF7A0A79100209AC07
:1005620053797374656D53746174655F49646C6526
:100572000053797374656D53746174655F5265617C
:1005820064790053797374656D53746174655F5750
:10059200616B6555700053797374656D5374617442
:1005A200655F4F70656E0053797374656D53746146
:1005B20074655F4E6F726D616C0053797374656D13
:1005C20053746174655F506F7765724F666600534E
:1005D200797374656D53746174655F5374616E648D
:1005E20042790053797374656D53746174655F4722
:1005F2006F546F536C6565700053797374656D53F6
:10060200746174655F536C656570005379737465CA
:100612006D53746174655F44656570536C65657094
:0106220000D7
:1007720042005400005E0036FF0562FF0573FF056C
:1007820085FF0598FF05A9FF05BCFF05D1FF05E51B
:06079200FF05FBFF060D50
:1008CA0090005CE0C39402748094805003E004F0CA
:1008DA00900055E004F07006900054E004F0900097
:1008EA0054E0FEA3E0FFEE3395E0FDFC74FFFBFA53
:1008FA00F9787FC31203397006900054F0A3F022EE
:09003600900054E0FEA3E0FF225B
:090A6E00900054EEF0A3EFF02219
:10062300EF8EF0120363067500010675000206756E
:1006330000030675000406750005067500060675B9
:1006430000070675000806750009067B000A068187
:10065300001406870032068D0064069300C80699CD
:1006630001F4069F03E806A507D006AB1388000034
:1006730006B1E490005CF022E4900065F022E4907F
:100683000066F022E4900067F022E4900068F02214
:10069300E4900069F022E490006A803EE490006CEC
:1006A3008038E490006E8032E4900070802CE490F7
:1006B300005CF0A3F0A3F0A3F0A3F0A3F0A3F0A3D6
:1006C300F0A3F0A3F0A3F0A3F0A3F0A3F0A3F0A38F
:0E06D300F0A3F0A3F0A3F0A3F0A3F0A3F02295
:10004600E490007AF0EF8EF0120363009D00010148
:10005600F60002020600030216000402260005024C
:100066003500060244000702530008026200090236
:1000760071000A02800014028C00320298006402A9
:10008600A400C802B101F402C503E802D907D002F0
:10009600EB13880000030490005CE0640260030236
:1000A60003047F01FE12062390007A7401F090008B
:1000B6005DE0C39402748094805003E004F09000E5
:1000C6005EE0C39403748094805003E004F09000D3
:1000D6005FE0C39404748094805003E004F09000C1
:1000E60060E0C39405748094805003E004F09000AF
:1000F60061E0C39406748094805003E004F090009D
:1001060062E0C39407748094805003E004F090008A
:1001160063E0C39408748094805003E004F0900078
:1001260064E0C39409748094805003E004F0900066
:1001360065E0C3940A748094805003E004F0900054
:1001460066E0C39414748094805003E004F0900039
:1001560067E0C39432748094805003E004F090000A
:1001660068E0C39464748094805003E004F09000C7
:1001760069E0C394C8748094805003E004F0C3908F
:10018600006BE094F490006AE09401500CA3E00444
:10019600F0700690006AE004F0C390006DE094E809
:1001A60090006CE09403500CA3E004F070069000FD
:1001B6006CE004F0C390006FE094D090006EE09481
:1001C60007500CA3E004F0700690006EE004F0C344
:1001D600900071E09488900070E09413400302034D
:1001E60004A3E004F07006900070E004F00203043B
:1001F60090005DE0640260030203047F020202AE27
:1002060090005EE0640360030203047F030202AE13
:1002160090005FE0640460030203047F030202AE01
:10022600900060E0640560030203047F0580799016
:100236000061E0640660030203047F06806A9000A2
:1002460062E0640760030203047F07805B9000633B
:10025600E0640860030203047F08804C900064E0B9
:10026600640960030203047F09803D900065E06431
:100276000A60030203047F0A802E900066E064147D
:10028600707C7F148022900067E0643270707F3249
:100296008016900068E0646470647F64800A900051
:1002A60069E064C870587FC8FE804A90006AE064BE
:1002B600017004A3E064F470457FF47E01803690FB
:1002C600006CE064037004A3E064E870317FE87EAC
:1002D60003802290006EE0B40724A3E0B4D01F7F11
:1002E600D07E078010900070E0B41312A3E0B488AB
:1002F6000D7F887E1312062390007A7401F0900019
:030306007AE0FF9B
:0103090022D1
:06000300900056EFF02210
:060A7700900057EFF02291
:10090A00900056E014601624FD602324047022121D
:10091A00001874FFFFFE1206237F01800C120009E3
:10092A0074FFFFFE1206237F0412000380031204E1
:07093A008A900056E0FF2245
:0300180002001EC5
:09079800410076004200770000E8
:10048A007F017E00120046EF640160030205617F6E
:10049A000AFE120046EF64017035900076E0FF0410
:1004AA00F0C3EF9414748094804002E4F0900077D3
:1004BA00E475F001120323FEC3E5F09414EE9400F0
:1004CA00400D9000007401F0E4900077F0A3F07FF3
:1004DA00147E001200467F327E00120046EF64014D
:1004EA00704B900000E07045A3E06401703F9000FB
:1004FA0079F0900002E0FF900079E0FEC39F501768
:10050A0074032EF582E43400F583E0FF120A3E906C
:10051A000079E004F080DB7E007F327D007B017A87
:10052A00007903120390E4900001F0A3F07F647E47
:10053A00001200467FC87E001200467FF47E011238
:10054A0000467FE87E031200467FD07E07120046EF
:07055A007F887E13120046AA
:010561002277
:0100090022D4
:0A07A10042007200004200740000E4
:03000B00020941A6
:10094100C0E0C0F0C083C082C0D075D0081208CA10
:10095100900072E475F001120323FEC3E5F094D018
:10096100EE94074007900072E4F0A3F0D0D0D0825B
:07097100D083D0F0D0E0328A
:03001B000209785F
:10097800C0E0C0F0C083C082C0D075D008900074B9
:10098800E475F001120323FEC3E5F09464EE9400CD
:100998004007900074E4F0A3F0D0D0D082D083D088
:0409A800F0D0E03279
:0E0A5200E4F589758A33758CFED28CD2A92208
:0E0A6000E4F589758B66758DFCD28ED2AB22C3
:1007AB0060350000010000000000000000000000A8
:1007BB00000000000000000000000000000000002E
:1007CB00000000000000000000000000000000001E
:0907DB0000000000000000000015
:1007E500900079EEF0A3EFF053BAFE759ADA900017
:1007F50079E0FEA3E0FBAA06E4F9F8FF7E307D2A46
:10080500FC120886EFF404F5D7900079E0FEA3E02A
:10081500FBAA06E4F9F8FF7E307D2AFC120886C3A0
:10082500E49FFFE49EFE74019DFDE49CFC780812A4
:0B083500034F8FD6758E1475AF0122A3
:100A3E002001FDEF30D005439A088003539AF7D278
:040A4E0001F59B22F1
:1009AC00900079EBF0A3EAF0A3E9F0900079E0FB7A
:1009BC00A3E0FAA3E0F912030A6017900079A3E40C
:1009CC0075F001120323A9F0FA12030AFF120A3E72
:0309DC0080D9229D
:030043000209DFD0
:0D09DF00C0E0C0F0C083C082C0D075D00859
:1009EC00E59A30E00A539AFEAF9B120840D200E51C
:0909FC009A30E105539AFDC20195
:0B0A0500D0D0D082D083D0F0D0E032FF
:10084000900000E06401701DEF64017018900003D7
:10085000EFF0900002E004F09000017401F0E490E9
:100860000000F0801A900001E064017018A3E0FE1F
:1008700004F074032EF582E43400F583EFF0E49085
:060880000077F0A3F02256
:030000000206E114
:0C06E100787FE4F6D8FD75812002072820
:10030A00BB010689828A83E0225002E722BBFE02F1
:09031A00E32289828A83E4932224
:10032300A3F8E0C5F025F0F0E5821582700215838D
:06033300E0C838F0E822EA
:10088600C2D5E830E70FB2D5E4C39BFBE49AFAE49D
:1008960099F9E498F8EC30E717B2D51208BC1203C0
:1008A600F8E4C39BFBE49AFAE499F9E498F8800328
:1008B6001203F830D50DE4C39FFFE49EFEE49DFDD0
:0408C600E49CFC2290
:10033900EB9FF5F0EA9E42F0E99D42F0EC6480C83B
:0603490064809845F022DB
:10034F00E86010ECA2E713FCED13FDEE13FEEF13C4
:04035F00FFD8F022B1
:10036300D083D082F8E4937012740193700DA3A329
:1003730093F8740193F5828883E473740293B5F060
:0D038300067403936860E9A3A3A3A380D8C8
:10039000EF4E6012EF60010EEDBB010B89828A8384
:1003A000F0A3DFFCDEFA2289F05007F709DFFCA991
:0C03B000F022BBFEFCF309DFFCA9F022E8
:1006ED0002000EE493A3F8E493A34003F68001F215
:1006FD0008DFF48029E493A3F85407240CC8C3330E
:10070D00C4540F4420C8834004F456800146F6DFDC
:10071D00E4800B010204081020408090076DE47EF8
:10072D00019360BCA3FF543F30E509541FFEE493D1
:10073D00A360010ECF54C025E060A840B8E493A398
:10074D00FAE493A3F8E493A3C8C582C8CAC583CAC3
:10075D00F0A3C8C582C8CAC583CADFE9DEE780BE7B
:0107E4000014
:1003BC0075F008758200EF2FFFEE33FECD33CDCCF8
:1003CC0033CCC58233C5829BED9AEC99E58298407B
:1003DC000CF582EE9BFEED9AFDEC99FC0FD5F0D658
:1003EC00E4CEFBE4CDFAE4CCF9A88222B800C1B982
:1003FC000059BA002DEC8BF084CFCECDFCE5F0CBC0
:10040C00F97818EF2FFFEE33FEED33FDEC33FCEBF8
:10041C0033FB10D703994004EB99FB0FD8E5E4F9B3
:10042C00FA227818EF2FFFEE33FEED33FDEC33FCA0
:10043C00C933C910D7059BE99A4007EC9BFCE99A94
:10044C00F90FD8E0E4C9FAE4CCFB2275F010EF2FD9
:10045C00FFEE33FEED33FDCC33CCC833C810D707D9
:10046C009BEC9AE899400AED9BFDEC9AFCE899F814
:0E047C000FD5F0DAE4CDFBE4CCFAE4C8F922A7
:00000001FF
