:0505E5004202FC0000D1
:0A000E00E4FF12000312127C80FBD5
:101380005A5A434C204D4F44425553202620444145
:101390004320446973706C61792056657269736F7C
:0E13A0006E20323032322E352E32310D0A00E0
:1013CF001214AF1214BD7F807E2512111BD2AFE411
:1013DF00FF12143B1214527BFF7A1379800212E929
:1009BF0053797374656D53746174655F49646C65C5
:1009CF000053797374656D53746174655F5265611B
:1009DF0064790053797374656D53746174655F57EF
:1009EF00616B6555700053797374656D53746174E1
:1009FF00655F4F70656E0053797374656D537461E5
:100A0F0074655F4E6F726D616C0053797374656DB1
:100A1F0053746174655F506F7765724F66660053EC
:100A2F00797374656D53746174655F5374616E642B
:100A3F0042790053797374656D53746174655F47C0
:100A4F006F546F536C6565700053797374656D5394
:100A5F00746174655F536C65657000537973746569
:100A6F006D53746174655F44656570536C65657033
:010A7F000076
:1005EA004202AC00005E028EFF09BFFF09D0FF097C
:1005FA00E2FF09F5FF0A06FF0A19FF0A2EFF0A425F
:06060A00FF0A58FF0A6A16
:101200009002D2E0C39402748094805003E004F012
:101210009002ADE004F070069002ACE004F09002A1
:10122000ACE0FEA3E0FFEE3395E0FDFC74FFFBFABB
:10123000F9787FC31201D070069002ACF0A3F022BF
:0914CB009002ACE0FEA3E0FF2258
:0914D4009002ACEEF0A3EFF0224F
:100A8000EF8EF01201FA0AD200010AD200020AD255
:100A900000030AD200040AD200050AD200060AD2D4
:100AA00000070AD200080AD200090AD8000A0ADEA2
:100AB00000140AE400320AEA00640AF000C80AF6E8
:100AC00001F40AFC03E80B0207D00B0813880000AE
:100AD0000B0EE49002D2F022E49002DBF022E490CC
:100AE00002DCF022E49002DDF022E49002DEF0224B
:100AF000E49002DFF022E49002E0803EE49002E223
:100B00008038E49002E48032E49002E6802CE490A5
:100B100002D2F0A3F0A3F0A3F0A3F0A3F0A3F0A3FC
:100B2000F0A3F0A3F0A3F0A3F0A3F0A3F0A3F0A32D
:0E0B3000F0A3F0A3F0A3F0A3F0A3F0A3F02233
:10032100E49002B0F0EF8EF01201FA0378000104BC
:10033100D1000204E1000304F100040501000505F8
:10034100100006051F0007052E0008053D000905E0
:100351004C000A055B001405670032057300640553
:100361007F00C8058C01F405A003E805B407D0059A
:10037100C61388000005DF9002D2E0640260030228
:1003810005DF7F01FE120A809002B07401F0900235
:10039100D3E0C39402748094805003E004F090028F
:1003A100D4E0C39403748094805003E004F090027D
:1003B100D5E0C39404748094805003E004F090026B
:1003C100D6E0C39405748094805003E004F0900259
:1003D100D7E0C39406748094805003E004F0900247
:1003E100D8E0C39407748094805003E004F0900235
:1003F100D9E0C39408748094805003E004F0900223
:10040100DAE0C39409748094805003E004F0900210
:10041100DBE0C3940A748094805003E004F09002FE
:10042100DCE0C39414748094805003E004F09002E3
:10043100DDE0C39432748094805003E004F09002B4
:10044100DEE0C39464748094805003E004F0900271
:10045100DFE0C394C8748094805003E004F0C3903B
:1004610002E1E094F49002E0E09401500CA3E00476
:10047100F070069002E0E004F0C39002E3E094E83B
:100481009002E2E09403500CA3E004F070069002A5
:10049100E2E004F0C39002E5E094D09002E4E0943D
:1004A10007500CA3E004F070069002E4E004F0C3EE
:1004B1009002E7E094889002E6E09413400302057D
:1004C100DFA3E004F070069002E6E004F00205DF2D
:1004D1009002D3E0640260030205DF7F0202058916
:1004E1009002D4E0640360030205DF7F0302058903
:1004F1009002D5E0640460030205DF7F03020589F1
:100501009002D6E0640560030205DF7F05807990E3
:1005110002D7E0640660030205DF7F06806A90026D
:10052100D8E0640760030205DF7F07805B9002D992
:10053100E0640860030205DF7F08804C9002DAE086
:10054100640960030205DF7F09803D9002DBE064FE
:100551000A60030205DF7F0A802E9002DCE064144A
:10056100707C7F1480229002DDE0643270707F32F3
:1005710080169002DEE0646470647F64800A9002F9
:10058100DFE064C870587FC8FE804A9002E0E064F2
:10059100017004A3E064F470457FF47E018036901D
:1005A10002E2E064037004A3E064E870317FE87E56
:1005B1000380229002E4E0B40724A3E0B4D01F7FBB
:1005C100D07E0780109002E6E0B41312A3E0B48855
:1005D1000D7F887E13120A809002B07401F09002A0
:0305E100B0E0FF88
:0105E40022F4
:060003009002CCEFF02298
:0614DD009002CDEFF022A9
:10127C009002CCE014601624FD602324047022122A
:10128C00001874FFFFFE120A807F01800C12000907
:10129C0074FFFFFE120A807F041200038003120CFD
:0712AC00FE9002CCE0FF22DE
:030018000213CF01
:090610004102F6004202F700006D
:100CFE0012140A1213AE7F017E00120321EF64015B
:100D0E0070787F0AFE120321EF640170359002F6AF
:100D1E00E0FF04F0C3EF9414748094804002E4F07A
:100D2E009002F7E475F001120182FEC3E5F094051E
:100D3E00EE9400400D9002587401F0E49002F7F02A
:100D4E00A3F07F147E001203217F327E0012032156
:100D5E007F647E001203217FC87E001203217FF480
:100D6E007E011203217FE87E031203217FD07E07CE
:0B0D7E001203217F887E131203212244
:0100090022D4
:100619004202E800004202EA00004202EC00004205
:0406290002EE0000DD
:03000B000213EFEE
:1013EF00C0E0C0F0C083C082C0D075D00812120018
:0B13FF00D0D0D082D083D0F0D0E032FC
:03001B0002001EC2
:10001E00C0E0C083C0829002FEE06401700E9002C8
:10002E00EDE004F070069002ECE004F0D082D08394
:03003E00D0E032DD
:0E14AF00E4F589758A33758CFED28CD2A922A1
:0E14BD00E4F589758B66758DFCD28ED2AB225C
:10062D0060350258010000000000000000000000CD
:10063D0000000000000000000000000000000000AD
:10064D00000000000000000000000000000000009D
:09065D0000000000000000000094
:10111B009002B0EEF0A3EFF053BAFE759ADA90029C
:10112B00B0E0FEA3E0FBAA06E4F9F8FF7E307D2ACF
:10113B00FC1211BCEFF404F5D79002B0E0FEA3E073
:10114B00FBAA06E4F9F8FF7E307D2AFC1211BCC322
:10115B00E49FFFE49EFE74019DFDE49CFC78081265
:0B116B0001E68FD6758E1475AF0122CF
:101468002001FDEF30D005439A088003539AF7D244
:0414780001F59B22BD
:1012E9009002B0EBF0A3EAF0A3E9F09002B0E0FBC2
:1012F900A3E0FAA3E0F912013C60179002B0A3E45D
:1013090075F001120182A9F0FA12013CFF1214686A
:0313190080D92256
:0300430002134F56
:0D134F00C0E0C0F0C083C082C0D075D008DF
:10135C00E59A30E00A539AFEAF9B121056D200E584
:09136C009A30E105539AFDC2011B
:0B137500D0D0D082D083D0F0D0E03286
:10117600900258E06401701DEF6401701890025BE4
:10118600EFF090025AE004F09002597401F0E490F6
:101196000258F0801A900259E064017018A3E0FE2C
:1011A60004F0745B2EF582E43402F583EFF0E490EC
:0611B60002F7F0A3F02295
:10124000E4FBF582F583EF6DFDEBC39408748094A5
:10125000805024758300ED5401F582ECC313FCED3E
:1012600013FDEC547FFCE58264017008EC64A0FC83
:0B127000ED6401FD0B80D2AE04AF0561
:01127B002250
:100E97009002C3EBF0A3EAF0A3E9F0A3ECF0A3ED13
:010EA700F05A
:100EA80074FF9002CAF0A3F0E49002C8F0A3F09097
:100EB80002C6E0FEA3E0FFA3E0FCA3E0FDC39FECB5
:100EC8009E50369002C3E0FBA3E0FAA3E0F98D82BE
:100ED8008C83120155FF9002CAE0FCA3E0FD1212B8
:100EE800409002CAEEF0A3EFF09002C9E004F0705F
:100EF800BE9002C8E004F080B69002CAE0FEA3E00B
:010F0800FFE9
:010F090022C5
:100B3E009002F0EBF0A3EAF0A3E9F0A3ECF0A3ED42
:010B4E00F0B6
:100B4F00E4FFEFFD9002F3E0FAA3E0FBD39DEA94FC
:100B5F000040030F80ECD3EB9404EA940050037F22
:100B6F00FF229002F0E0FBA3E0FAA3E0F99002F479
:100B7F00E024FEFD9002F3E034FFFC120E97AC066A
:100B8F00EC9002F5F09002F0E0FBA3E0FAA3E0F99D
:100B9F009002F4E024FEFD9002F3E034FF8D82F525
:100BAF0083120155B5071C9002F4E024FFFF900259
:100BBF00F3E034FF8F82F583120155FF9002F5E0C9
:080BCF006F60037FFF227F002D
:010BD70022FB
:10066600606401F432499876000000000000000042
:100676000000000000000000000000000000000074
:100686000000000000000000000000000000000064
:100696000000000000000000000000000000000054
:1006A6000000000000000000000000000000000044
:1006B6000000000000000000000000000000000034
:1006C600000000000000000060F0010400000000CF
:1006D6000000000000000000000000000000000014
:1006E6000000000000000000000000000000000004
:1006F60000000000000000000000000000000000F4
:1007060000000000000000000000000000000000E3
:1007160000000000000000000000000000000000D3
:1007260000000000000000000000000000000000C3
:1007360000000000000000000000000000000000B3
:1007460000000000000000000000000000000000A3
:100756000000000000000000000000000000000093
:100766000000000000000000000000000000000083
:100776000000000000000000000000000000000073
:100786000000000000000000000000000000000063
:100796000000000000000000000000000000000053
:1007A6000000000000000000000000000000000043
:0C07B60000000000000000000000000037
:10140A007D057C00E4FF121423EF6401700A90004A
:09141A000004F0E4FF12148E221C
:1012B300AD07AC069002C2E025E0FF9002C1E03327
:1012C300FEC006C007C001ED25E0FFEC33FE74F459
:1012D3002FF974013EA801FC7D01D001D007D0068F
:0612E3001201167F00223B
:100FEC00E0FEA3E0FF7B017A017904A3E0FDA3E01E
:080FFC009002C0CDF0A3EDF05E
:101004009002BDEBF0A3EAF0A3E9F0AD07AC0690C3
:1010140002C1E025E0FF9002C0E033FEC006C00735
:10102400ED25E0FFEC33FE74F42FF974013EFA7BF6
:1010340001C003C0029002BDE0FBA3E0FAA3E0F804
:10104400AC02AD03D002D003D007D0061201167F44
:02105400002278
:101056009002AEEFF0900001E06401702A9002AEBB
:10106600E0FE640160037FFF22E4900001F090003F
:1010760000F0900002F0E0FF04F074032FF582E424
:101086003400F583EE8027900002E0C3943274802A
:10109600948040037F00229002AEE0FF900002E0C1
:1010A600FE04F074032EF582E43400F583EFF0E4D9
:0710B600FF12143B7F002232
:0D10BD0025E0FFE033FEEF2405FDE43EFCDE
:1010CA009002C3EBF0A3EAF0A3E9F0A3ECF0A3EDDE
:0110DA00F025
:1010DB00E4A3F0A3F09002C6E0FEA3E0FFA3E0FCC4
:1010EB00A3E0FDC39FEC9E50269002C3E0FBA3E060
:1010FB00FAA3E0F98D828C83120155FF12146890CC
:0F110B0002C9E004F070CE9002C8E004F080C684
:01111A0022B2
:100E14009002B5EBF0A3EAF0A3E9F0A3ECF0A3EDA4
:010E2400F0DD
:100E2500C39408EC940050037FFF229002B5E0FBC9
:100E3500A3E0FAA3E0F99002B9E024FEFD9002B820
:100E4500E034FFFC120E97AC06EC9002BAF090026B
:100E5500B5E0FBA3E0FAA3E0F99002B9E024FEFDBA
:100E65009002B8E034FF8D82F583120155B5071C59
:100E75009002B9E024FFFF9002B8E034FF8F82F5BD
:100E850083120155FF9002BAE06F60037FFE227F57
:010E9500005C
:010E96002239
:10131C00E4FB90000304F0EF4480A3F0A3EDF00B8A
:10132C007A0079037D037C00120E97900006EFF093
:10133C00EEA3F07B017A0079037D057C001210CAC4
:02134C007F0020
:01134E00227C
:1007C7009002BBEBF0A3EAF0A3E9F0A3ECF0A3EDF2
:0107D700F031
:1007D800E4A3F0A3F0A3F090000304F0A37403F0E3
:1007E800ED25E0A3F0E49002C0F09002C0E0FFD352
:1007F8009002BFE09F9002BEE09400405B9002BB75
:10080800E0FBA3E0FAA3E0F99002C0E0FD75F00276
:10081800A4F58285F083120198E5F0FF75F002EDEA
:10082800A42406F582E5F03400F583EFF09002C0C9
:10083800E0FF75F002A4F58285F083120198FE7539
:10084800F002EFA42407F582E5F03400F583EEF01A
:100858009002C0E004F080927B017A007903900254
:10086800BFE025E0FF9002BEE033FEEF2403FDE485
:100878003EFC120E979002C1EEF0A3EFF0FD90023D
:10088800BFE025E0FB9002BEE033FA74062BF58248
:1008980074003AF583EDF09002C1E0FF74072BF580
:1008A8008274003AF583EFF07B017A0079039002B5
:0A08B800BFE09002BE1210BD7F00E9
:0108C2002213
:080F0A009002B5ECF0A3EDF03C
:100F1200900002120155FE9000031201557C00243C
:100F220000FFEC3E9002B7F0A3EFF0900004120134
:100F320055FE9000051201552400FFEC3EFE900282
:100F4200B9F0A3EFF0D39478EE940040037FFF2230
:100F52007E007FF07D007B017A01790412022790E6
:100F620002B7120FEC7B017A0179049002B9E0FC1E
:080F7200A3E0FD1207C77F0098
:010F7A002254
:100BD8009002B0EBF0A3EAF0A3E9F0A3ECF0A3EDE8
:010BE800F01C
:100BE900E4FF120E14EF60037FFF229002B0E0FBD6
:100BF900A3E0FAA3E0F912013C640160037FFF223C
:100C0900900001120155FF64036012EF6410600D3A
:100C1900EF64066008EF640460037FFF229000011F
:100C290012015524FC602B24FE60112403703790B7
:100C390002B3E0FCA3E0FD120F0A802A9002B0E0A3
:100C4900FBA3E0FAA3E0F9A3E0FCA3E0FD120D8900
:100C590080149002B0E0FBA3E0FAA3E0F9A3E0FC62
:080C6900A3E0FD120F7B7F00E8
:010C71002260
:10147C009002F9EBF0A3EAF0A3E9F09000007401FC
:02148C00F0224C
:101452007E017F047D007B017A00790012022790D1
:0614620000017401F022FC
:1013AE00900000E0601AA37401F0FB7A007903A3A9
:1013BE00E0FD7C00120BD8E4900002F0900000F0EB
:0113CE0022FC
:100D89009002B5EBF0A3EAF0A3E9F0A3ECF0A3ED30
:010D9900F069
:100D9A009002B5E0FBA3E0FAA3E0F9900002120189
:100DAA0055FE9000031201557C002400FFEC3E9092
:100DBA0002BAF0A3EFF07E007FF07D007B017A019A
:100DCA0079041202279002B5E0FBA3E0FAA3E0F946
:100DDA00900004120155FE9000051201557C002472
:100DEA0000FFEC3E900104F0A3EFF09002BAE0FE9F
:100DFA00A3E0FF7B017A0179049002C1E4F0A30425
:090E0A00F01212B312149F7F00D4
:010E130022BC
:10149F007B017A0079037D087C001210CA7F00223D
:080F7B009002B5ECF0A3EDF0CB
:100F8300900002120155FE9000031201557C0024CB
:100F930000FFEC3E9002B7F0A3EFF09000041201C3
:100FA30055FE9000051201552400FFEC3EFE900211
:100FB300B9F0A3EFF0D39478EE940040037FFF22BF
:100FC3007E007FF07D007B017A0179041202279075
:100FD30002B7120FEC7B017A0179049002B9E0FCAD
:080FE300A3E0FD1208C37F002A
:010FEB0022E3
:1008C3009002BBEBF0A3EAF0A3E9F0A3ECF0A3EDF5
:0108D300F034
:1008D400E4A3F0A3F0A3F090000304F0A37404F0E5
:1008E400ED25E0A3F0E49002C0F09002C0E0FFD355
:1008F4009002BFE09F9002BEE09400405B9002BB78
:10090400E0FBA3E0FAA3E0F99002C0E0FD75F00279
:10091400A4F58285F083120198E5F0FF75F002EDED
:10092400A42406F582E5F03400F583EFF09002C0CC
:10093400E0FF75F002A4F58285F083120198FE753C
:10094400F002EFA42407F582E5F03400F583EEF01D
:100954009002C0E004F080927B017A007903900257
:10096400BFE025E0FF9002BEE033FEEF2403FDE488
:100974003EFC120E979002C1EEF0A3EFF0FD900240
:10098400BFE025E0FB9002BEE033FA74062BF5824B
:1009940074003AF583EDF09002C1E0FF74072BF583
:1009A4008274003AF583EFF07B017A0079039002B8
:0A09B400BFE09002BE1210BD7F00EC
:0109BE002216
:0407C2004102FE00F2
:10143B009002B0EFF09002FE7401F0C2A9E49002AA
:07144B00ECF0A3F0D2A9228E
:10148E009002B0EFF0E49002FEF09002ECF0A3F0C8
:01149E00222B
:101423009002B0EFF0C39002EDE09D9002ECE09CDF
:0814330040037F01227F00222B
:03000000020C727D
:0C0C7200787FE4F6D8FD758120020CB9F3
:10004600E709F608DFFA8046E709F208DFFA803E9C
:1000560088828C83E709F0A3DFFA8032E309F60889
:10006600DFFA8078E309F208DFFA807088828C83F1
:10007600E309F0A3DFFA806489828A83E0A3F608A5
:10008600DFFA805889828A83E0A3F208DFFA804C7F
:1000960080D280FA80C680D4806980F28033801056
:1000A60080A680EA809A80A880DA80E280CA8033BF
:1000B60089828A83ECFAE493A3C8C582C8CCC58337
:1000C600CCF0A3C8C582C8CCC583CCDFE9DEE78007
:1000D6000D89828A83E493A3F608DFF9ECFAA9F086
:1000E600EDFB2289828A83ECFAE0A3C8C582C8CCDC
:1000F600C583CCF0A3C8C582C8CCC583CCDFEADEF5
:10010600E880DB89828A83E493A3F208DFF980CC56
:1001160088F0EF60010E4E60C388F0ED2402B4044F
:100126000050B9F582EB2402B4040050AF232345F6
:0601360082239000967385
:10013C00BB010689828A83E0225002E722BBFE02C1
:09014C00E32289828A83E49322F4
:10015500BB010CE58229F582E5833AF583E022505F
:1001650006E92582F8E622BBFE06E92582F8E222A9
:0D017500E58229F582E5833AF583E49322C3
:10018200A3F8E0C5F025F0F0E58215827002158330
:06019200E0C838F0E8228D
:10019800BB0110E58229F582E5833AF583E0F5F0A5
:1001A800A3E0225009E92582F886F008E622BBFE82
:1001B8000AE92582F8E2F5F008E222E5832AF583C8
:0801C800E993F5F0A3E993228D
:1011BC00C2D5E830E70FB2D5E4C39BFBE49AFAE45E
:1011CC0099F9E498F8EC30E717B2D51211F2120243
:1011DC008FE4C39BFBE49AFAE499F9E498F8800352
:1011EC0012028F30D50DE4C39FFFE49EFEE49DFDFB
:0411FC00E49CFC2251
:1001D000EB9FF5F0EA9E42F0E99D42F0EC6480C8A6
:0601E00064809845F02246
:1001E600E86010ECA2E713FCED13FDEE13FEEF132F
:0401F600FFD8F0221C
:1001FA00D083D082F8E4937012740193700DA3A394
:10020A0093F8740193F5828883E473740293B5F0CA
:0D021A00067403936860E9A3A3A3A380D832
:10022700EF4E6012EF60010EEDBB010B89828A83EE
:10023700F0A3DFFCDEFA2289F05007F709DFFCA9FB
:0C024700F022BBFEFCF309DFFCA9F02252
:100C7E0002000EE493A3F8E493A34003F68001F27E
:100C8E0008DFF48029E493A3F85407240CC8C33377
:100C9E00C4540F4420C8834004F456800146F6DF46
:100CAE00E4800B01020408102040809005E5E47EEC
:100CBE00019360BCA3FF543F30E509541FFEE4933B
:100CCE00A360010ECF54C025E060A840B8E493A302
:100CDE00FAE493A3F8E493A3C8C582C8CAC583CA2D
:100CEE00F0A3C8C582C8CAC583CADFE9DEE780BEE5
:0107C6000032
:1002530075F008758200EF2FFFEE33FECD33CDCC62
:1002630033CCC58233C5829BED9AEC99E5829840E5
:100273000CF582EE9BFEED9AFDEC99FC0FD5F0D6C2
:10028300E4CEFBE4CDFAE4CCF9A88222B800C1B9EC
:100293000059BA002DEC8BF084CFCECDFCE5F0CB2A
:1002A300F97818EF2FFFEE33FEED33FDEC33FCEB63
:1002B30033FB10D703994004EB99FB0FD8E5E4F91E
:1002C300FA227818EF2FFFEE33FEED33FDEC33FC0B
:1002D300C933C910D7059BE99A4007EC9BFCE99AFF
:1002E300F90FD8E0E4C9FAE4CCFB2275F010EF2F44
:1002F300FFEE33FEED33FDCC33CCC833C810D70744
:100303009BEC9AE899400AED9BFDEC9AFCE899F87E
:0E0313000FD5F0DAE4CDFBE4CCFAE4C8F92211
:00000001FF
