:04050E000250000097
:0A000E00E4FF1200081205A780FBB2
:090617001205FB120609D2AF2204
:1002670053797374656D53746174655F49646C6524
:100277000053797374656D53746174655F5265617A
:1002870064790053797374656D53746174655F574E
:10029700616B6555700053797374656D5374617440
:1002A700655F4F70656E0053797374656D53746144
:1002B70074655F4E6F726D616C0053797374656D11
:1002C70053746174655F506F7765724F666600534C
:1002D700797374656D53746174655F5374616E648B
:1002E70042790053797374656D53746174655F4720
:1002F7006F546F536C6565700053797374656D53F4
:10030700746174655F536C656570005379737465C8
:100317006D53746174655F44656570536C65657092
:0103270000D5
:10051200022E00001E10FF0267FF0278FF028AFF10
:10052200029DFF02AEFF02C1FF02D6FF02EAFF03F5
:0405320000FF0312B1
:10057600C3E53694027480948050020536052FE553
:100586002F7002052EAE2EAF2FEE3395E0FDFC74D4
:10059600FFFBFAF9787FC31204CB7004F52EF52F12
:0105A6002232
:05000300AE2EAF2F221C
:050620008E2E8F2F2239
:10032800EF8EF01204E1037A0001037A0002037AE7
:100338000003037A0004037A0005037A0006037AAF
:100348000007037A0008037A0009037E000A038283
:10035800001403860032038A0064038E00C80392E7
:1003680001F4039803E8039E07D003A41388000050
:1003780003A7E4F53622E4F53F22E4F54022E4F54C
:100388004122E4F54222E4F54322E4F544F545220E
:10039800E4F546F54722E4F548F54922E48029E4E6
:1003A800F536F537F538F539F53AF53BF53CF53DD1
:1003B800F53EF53FF540F541F542F543F544F54581
:0D03C800F546F547F548F549F54AF54B2295
:10001E00E4F553EF8EF01204E1007300010180004D
:10002E0002018E0003019B000401A8000501B5002A
:10003E000601C2000701CF000801DC000901E9003A
:10004E000A01F3001401FD003202070064021100E0
:10005E00C8021C01F4022E03E8024007D00250131E
:10006E008800000264E536640260030202647F01C8
:10007E00FE120328755301C3E537940274809480F1
:10008E0050020537C3E538940374809480500205FE
:10009E0038C3E53994047480948050020539C3E561
:1000AE003A9405748094805002053AC3E53B940659
:1000BE00748094805002053BC3E53C940774809491
:1000CE00805002053CC3E53D940874809480500234
:1000DE00053DC3E53E9409748094805002053EC3ED
:1000EE00E53F940A748094805002053FC3E5409426
:1000FE00147480948050020540C3E541943274809C
:10010E00948050020541C3E54294647480948050FB
:10011E00020542C3E54394C874809480500205439F
:10012E00C3E54594F4E544940150080545E5457052
:10013E00020544C3E54794E8E54694035008054795
:10014E00E54770020546C3E54994D0E5489407504B
:10015E00080549E54970020548C3E54B9488E54A10
:10016E0094134003020264054BE54B7002054A02EC
:10017E000264E537640260030202647F0202021920
:10018E00E538640360030202647F03807EE5396410
:10019E000460030202647F038071E53A6405600324
:1001AE000202647F058064E53B640660030202641C
:1001BE007F068057E53C640760030202647F078078
:1001CE004AE53D640860030202647F08803DE53E17
:1001DE00640960030202647F098030E53F640A709F
:1001EE00757F0A8026E5406414706B7F14801CE5D1
:1001FE0041643270617F328012E542646470577FD1
:10020E00648008E54364C8704D7FC8FE8042E545B2
:10021E0064F47004E5446401703C7FF47E01803028
:10022E00E54764E87004E5466403702A7FE87E03C0
:10023E00801EE549B4D01FE548B4071A7FD07E076B
:10024E00800EE54BB4880FE54AB4130A7F887E13FF
:08025E00120328755301AF5390
:010266002275
:030008008F302214
:030018008F312203
:1005A700E53014601324FD60202404701F74FFFFDE
:1005B700FE1203287F01800C12062574FFFFFE122E
:0F05C70003287F041200088003120461AF302262
:030536000152006F
:100461007F017E0012001EEF6401705D7F0AFE12A3
:10047100001EEF64017013AF520552C3EF94147460
:100481008094804005E4F552B2917F147E00120001
:100491001E7F327E0012001E7F647E0012001E7FCE
:1004A100C87E0012001E7FF47E0112001E7FE87ECE
:1004B1000312001EEF64017002B2907FD07E07121A
:0A04C100001E7F887E1312001E2229
:03062500020617B3
:08053900024C0000024E00001C
:03000B00020542A9
:10054200C0E0C0F0C083C082C0D075D0081205766A
:10055200054DE54DAE4C7002054C14C394D0EE949B
:10056200074006754C00754D00D0D0D082D083D0A4
:04057200F0D0E032B3
:03001B000205D605
:1005D600C0E0C0D075D008054FE54FAE4E7002059D
:1005E6004E14C39464EE94004006754E00754F0099
:0505F600D0D0D0E0327E
:0E05FB00E4F589758A33758CFED28CD2A92264
:0E060900E4F589758B66758DFCD28ED2AB221E
:030000000203D523
:0C03D500787FE4F6D8FD75815302041C0B
:1004CB00EB9FF5F0EA9E42F0E99D42F0EC6480C8A8
:0604DB0064809845F02248
:1004E100D083D082F8E4937012740193700DA3A3AA
:1004F10093F8740193F5828883E473740293B5F0E1
:0D050100067403936860E9A3A3A3A380D848
:1003E10002000EE493A3F8E493A34003F68001F224
:1003F10008DFF48029E493A3F85407240CC8C3331D
:10040100C4540F4420C8834004F456800146F6DFEB
:10041100E4800B010204081020408090050EE47E68
:10042100019360BCA3FF543F30E509541FFEE493E0
:10043100A360010ECF54C025E060A840B8E493A3A7
:10044100FAE493A3F8E493A3C8C582C8CAC583CAD2
:10045100F0A3C8C582C8CAC583CADFE9DEE780BE8A
:0105410000B9
:00000001FF
