:05061000420329000077
:0A000E00E4FF12192E12154380FBC7
:1016DE005A5A434C204D4F444255532026204441E4
:1016EE004320446973706C61792056657269736F1B
:0E16FE006E20323032322E352E32310D0A007F
:10001E0012190012190E7F807E25121398D2AF127C
:10002E0013F3E4FF12182C1218437BFF7A1679DEB5
:03003E000215E6C2
:100BA80053797374656D53746174655F49646C65DA
:100BB8000053797374656D53746174655F52656130
:100BC80064790053797374656D53746174655F5704
:100BD800616B6555700053797374656D53746174F6
:100BE800655F4F70656E0053797374656D537461FA
:100BF80074655F4E6F726D616C0053797374656DC7
:100C080053746174655F506F7765724F6666005301
:100C1800797374656D53746174655F5374616E6440
:100C280042790053797374656D53746174655F47D5
:100C38006F546F536C6565700053797374656D53A9
:100C4800746174655F536C6565700053797374657E
:100C58006D53746174655F44656570536C65657048
:010C6800008B
:100615004202AC00005E028EFF0BA8FF0BB9FF0B78
:10062500CBFF0BDEFF0BEFFF0C02FF0C17FF0C2BB4
:06063500FF0C41FF0C5315
:1014C7009002D2E0C39402748094805003E004F049
:1014D7009002ADE004F070069002ACE004F09002D8
:1014E700ACE0FEA3E0FFEE3395E0FDFC74FFFBFAF2
:1014F700F9787FC31201FB70069002ACF0A3F022CB
:09191C009002ACE0FEA3E0FF2202
:091925009002ACEEF0A3EFF022F9
:100C6900EF8EF01202250CBB00010CBB00020CBB7D
:100C790000030CBB00040CBB00050CBB00060CBB3D
:100C890000070CBB00080CBB00090CC1000A0CC70B
:100C990000140CCD00320CD300640CD900C80CDF51
:100CA90001F40CE503E80CEB07D00CF11388000004
:100CB9000CF7E49002D2F022E49002DBF022E490F7
:100CC90002DCF022E49002DDF022E49002DEF02260
:100CD900E49002DFF022E49002E0803EE49002E238
:100CE9008038E49002E48032E49002E6802CE490BB
:100CF90002D2F0A3F0A3F0A3F0A3F0A3F0A3F0A312
:100D0900F0A3F0A3F0A3F0A3F0A3F0A3F0A3F0A342
:0E0D1900F0A3F0A3F0A3F0A3F0A3F0A3F02248
:10034C00E49002B0F0EF8EF012022503A30001043A
:10035C00FC0002050C0003051C0004052C0005051F
:10036C003B0006054A000705590008056800090509
:10037C0077000A0586001405920032059E0064057C
:10038C00AA00C805B701F405CB03E805DF07D005C3
:10039C00F113880000060A9002D2E06402600302A6
:1003AC00060A7F01FE120C699002B07401F09002F3
:1003BC00D3E0C39402748094805003E004F0900264
:1003CC00D4E0C39403748094805003E004F0900252
:1003DC00D5E0C39404748094805003E004F0900240
:1003EC00D6E0C39405748094805003E004F090022E
:1003FC00D7E0C39406748094805003E004F090021C
:10040C00D8E0C39407748094805003E004F0900209
:10041C00D9E0C39408748094805003E004F09002F7
:10042C00DAE0C39409748094805003E004F09002E5
:10043C00DBE0C3940A748094805003E004F09002D3
:10044C00DCE0C39414748094805003E004F09002B8
:10045C00DDE0C39432748094805003E004F0900289
:10046C00DEE0C39464748094805003E004F0900246
:10047C00DFE0C394C8748094805003E004F0C39010
:10048C0002E1E094F49002E0E09401500CA3E0044B
:10049C00F070069002E0E004F0C39002E3E094E810
:1004AC009002E2E09403500CA3E004F0700690027A
:1004BC00E2E004F0C39002E5E094D09002E4E09412
:1004CC0007500CA3E004F070069002E4E004F0C3C3
:1004DC009002E7E094889002E6E094134003020651
:1004EC000AA3E004F070069002E6E004F002060AAB
:1004FC009002D3E06402600302060A7F020205B494
:10050C009002D4E06403600302060A7F030205B480
:10051C009002D5E06404600302060A7F030205B46E
:10052C009002D6E06405600302060A7F058079908C
:10053C0002D7E06406600302060A7F06806A900216
:10054C00D8E06407600302060A7F07805B9002D93B
:10055C00E06408600302060A7F08804C9002DAE02F
:10056C006409600302060A7F09803D9002DBE064A7
:10057C000A600302060A7F0A802E9002DCE06414F3
:10058C00707C7F1480229002DDE0643270707F32C8
:10059C0080169002DEE0646470647F64800A9002CE
:1005AC00DFE064C870587FC8FE804A9002E0E064C7
:1005BC00017004A3E064F470457FF47E01803690F2
:1005CC0002E2E064037004A3E064E870317FE87E2B
:1005DC000380229002E4E0B40724A3E0B4D01F7F90
:1005EC00D07E0780109002E6E0B41312A3E0B4882A
:1005FC000D7F887E13120C699002B07401F090028A
:03060C00B0E0FF5C
:01060F0022C8
:06192E009002CCEFF02254
:061934009002CDEFF0224D
:101543009002CCE014601624FD6023240470221260
:10155300001874FFFFFE120C697F01800C12000A51
:1015630074FFFFFE120C697F0412192E8003120D03
:07157300279002CCE0FF22EB
:0300180002001EC5
:0E063B0041032300420324000042032100007B
:100D27001217FB1217857F017E0012034CEF640137
:100D37006003020DDE7F0AFE12034CEF640170357B
:100D4700900323E0FF04F0C3EF9414748094804071
:100D570002E4F0900324E475F001120182FEC3E57A
:100D6700F09405EE9400400D9002587401F0E49061
:100D77000324F0A3F07F147E0012034C7F327E0021
:100D870012034C7F647E0012034C7FC87E0012035F
:100D97004C7FF47E0112034C7FE87E0312034CEF75
:100DA700640170259001F4E0FEA3E0FF900321E0C9
:100DB7006E7003A3E06F6011900321EEF0A3EFF0D4
:100DC7007B017A0179F41209FE7FD07E0712034C6A
:070DD7007F887E1312034C1C
:010DDE0022F2
:01000A0022D3
:1006490042030C000042030E000042031000004266
:040659000312000088
:03000B000217E0F9
:1017E000C0E0C0F0C083C082C0D075D0081214C75A
:0B17F000D0D0D082D083D0F0D0E03207
:03001B0002176267
:10176200C0E0C083C08290032BE06401700E90033E
:1017720011E004F07006900310E004F0D082D083F0
:03178200D0E03282
:0E190000E4F589758A33758CFED28CD2A9224B
:0E190E00E4F589758B66758DFCD28ED2AB2206
:10065D00603502580100000000000000000000009D
:10066D00000000000000000000000000000000007D
:10067D00000000000000000000000000000000006D
:09068D0000000000000000000064
:101398009002B0EEF0A3EFF053BAFE759ADA90021D
:1013A800B0E0FEA3E0FBAA06E4F9F8FF7E307D2A50
:1013B800FC121483EFF404F5D79002B0E0FEA3E02A
:1013C800FBAA06E4F9F8FF7E307D2AFC121483C3D9
:1013D800E49FFFE49EFE74019DFDE49CFC780812E6
:0B13E80002118FD6758E1475AF012224
:101859002001FDEF30D005439A088003539AF7D24F
:0418690001F59B22C8
:1015E6009002B0EBF0A3EAF0A3E9F09002B0E0FBC2
:1015F600A3E0FAA3E0F912013C60179002B0A3E45D
:1016060075F001120182A9F0FA12013CFF12185975
:0316160080D92256
:0300430002167E24
:0D167E00C0E0C0F0C083C082C0D075D008AD
:10168B00E59A30E00A539AFEAF9B12126CD200E53A
:09169B009A30E105539AFDC201E9
:0B16A400D0D0D082D083D0F0D0E03254
:10143D00900258E06401701DEF6401701890025B1A
:10144D00EFF090025AE004F09002597401F0E4902C
:10145D000258F0801A900259E064017018A3E0FE62
:10146D0004F0745B2EF582E43402F583EFF0E49022
:06147D000324F0A3F0229D
:10150700E4FBF582F583EF6DFDEBC39408748094DB
:10151700805024758300ED5401F582ECC313FCED74
:1015270013FDEC547FFCE58264017008EC64A0FCB9
:0B153700ED6401FD0B80D2AE04AF0597
:011542002286
:1010AD009002C3EBF0A3EAF0A3E9F0A3ECF0A3EDFB
:0110BD00F042
:1010BE0074FF9002CAF0A3F0E49002C8F0A3F0907F
:1010CE0002C6E0FEA3E0FFA3E0FCA3E0FDC39FEC9D
:1010DE009E50369002C3E0FBA3E0FAA3E0F98D82A6
:1010EE008C83120155FF9002CAE0FCA3E0FD12159D
:1010FE00079002CAEEF0A3EFF09002C9E004F07080
:10110E00BE9002C8E004F080B69002CAE0FEA3E0F2
:01111E00FFD1
:01111F0022AD
:100DDF0090031BEBF0A3EAF0A3E9F0A3ECF0A3ED73
:010DEF00F013
:100DF000E4FFEFFD90031EE0FAA3E0FBD39DEA942D
:100E00000040030F80ECD3EB9404EA940050037F7E
:100E1000FF2290031BE0FBA3E0FAA3E0F990031F7D
:100E2000E024FEFD90031EE034FFFC1210ADAC0682
:100E3000EC900320F090031BE0FBA3E0FAA3E0F9A1
:100E400090031FE024FEFD90031EE034FF8D82F529
:100E500083120155B5071C90031FE024FFFF900388
:100E60001EE034FF8F82F583120155FF900320E0CE
:080E70006F60037FFF227F0089
:010E78002257
:10069600606401F40000987600000000000000008D
:1006A6000000000000000000000000000000000044
:1006B6000000000000000000000000000000000034
:1006C6000000000000000000000000000000000024
:1006D6000000000000000000000000000000000014
:1006E6000000000000000000000000000000000004
:1006F600000000000000000060F00104000000009F
:1007060000000000000000000000000000000000E3
:1007160000000000000000000000000000000000D3
:1007260000000000000000000000000000000000C3
:1007360000000000000000000000000000000000B3
:1007460000000000000000000000000000000000A3
:100756000000000000000000000000000000000093
:100766000000000000000000000000000000000083
:100776000000000000000000000000000000000073
:100786000000000000000000000000000000000063
:100796000000000000000000000000000000000053
:1007A6000000000000000000000000000000000043
:1007B6000000000000000000000000000000000033
:1007C6000000000000000000000000000000000023
:1007D6000000000000000000000000000000000013
:0C07E60000000000000000000000000007
:1017FB007D057C00E4FF121814EF6401700A900061
:09180B000004F0E4FF1218DF22D2
:10157A00AD07AC069002C2E025E0FF9002C1E0335D
:10158A00FEC006C007C001ED25E0FFEC33FE74F48F
:10159A002FF974013EA801FC7D01D001D007D006C5
:0615AA001201167F002271
:10120200E0FEA3E0FF7B017A017904A3E0FDA3E005
:081212009002C0CDF0A3EDF045
:10121A009002BDEBF0A3EAF0A3E9F0AD07AC0690AB
:10122A0002C1E025E0FF9002C0E033FEC006C0071D
:10123A00ED25E0FFEC33FE74F42FF974013EFA7BDE
:10124A0001C003C0029002BDE0FBA3E0FAA3E0F8EC
:10125A00AC02AD03D002D003D007D0061201167F2C
:02126A00002260
:10126C009002AEEFF0900001E06401702A9002AEA3
:10127C00E0FE640160037FFF22E4900001F0900027
:10128C0000F0900002F0E0FF04F074032FF582E40C
:10129C003400F583EE8027900002E0C39432748012
:1012AC00948040037F00229002AEE0FF900002E0A9
:1012BC00FE04F074032EF582E43400F583EFF0E4C1
:0712CC00FF12182C7F002225
:0D133A0025E0FFE033FEEF2405FDE43EFC5E
:101347009002C3EBF0A3EAF0A3E9F0A3ECF0A3ED5E
:01135700F0A5
:10135800E4A3F0A3F09002C6E0FEA3E0FFA3E0FC44
:10136800A3E0FDC39FEC9E50269002C3E0FBA3E0E0
:10137800FAA3E0F98D828C83120155FF1218599057
:0F13880002C9E004F070CE9002C8E004F080C605
:011397002233
:10102A009002B5EBF0A3EAF0A3E9F0A3ECF0A3ED8C
:01103A00F0C5
:10103B00C39408EC940050037FFF229002B5E0FBB1
:10104B00A3E0FAA3E0F99002B9E024FEFD9002B808
:10105B00E034FFFC1210ADAC06EC9002BAF090023B
:10106B00B5E0FBA3E0FAA3E0F99002B9E024FEFDA2
:10107B009002B8E034FF8D82F583120155B5071C41
:10108B009002B9E024FFFF9002B8E034FF8F82F5A5
:10109B0083120155FF9002BAE06F60037FFE227F3F
:0110AB000044
:0110AC002221
:10161900E4FB90000304F0EF4480A3F0A3EDF00B8A
:101629007A0079037D037C001210AD900006EFF07B
:10163900EEA3F07B017A0079037D057C0012134744
:021649007F0020
:01164B00227C
:100806009002BBEBF0A3EAF0A3E9F0A3ECF0A3EDB2
:01081600F0F1
:10081700E4A3F0A3F0A3F090000304F0A37403F0A3
:10082700ED25E0A3F0E49002C0F09002C0E0FFD312
:100837009002BFE09F9002BEE09400405B9002BB35
:10084700E0FBA3E0FAA3E0F99002C0E0FD75F00237
:10085700A4F58285F0831201C3E5F0FF75F002ED80
:10086700A42406F582E5F03400F583EFF09002C08A
:10087700E0FF75F002A4F58285F0831201C3FE75CF
:10088700F002EFA42407F582E5F03400F583EEF0DB
:100897009002C0E004F080927B017A007903900215
:1008A700BFE025E0FF9002BEE033FEEF2403FDE446
:1008B7003EFC1210AD9002C1EEF0A3EFF0FD9002E6
:1008C700BFE025E0FB9002BEE033FA74062BF58209
:1008D70074003AF583EDF09002C1E0FF74072BF541
:1008E7008274003AF583EFF07B017A007903900276
:0A08F700BFE09002BE12133A7F002A
:0109010022D3
:081120009002B5ECF0A3EDF024
:10112800900002120155FE9000031201557C002424
:1011380000FFEC3E9002B7F0A3EFF090000412011C
:1011480055FE9000051201552400FFEC3EFE90026A
:10115800B9F0A3EFF0D39478EE940040037FFF2218
:101168007E007FF07D007B017A01790412025290A3
:1011780002B71212027B017A0179049002B9E0FCED
:08118800A3E0FD1208067F0040
:01119000223C
:100E79009002B0EBF0A3EAF0A3E9F0A3ECF0A3ED44
:010E8900F078
:100E8A00E4FF12102AEF60037FFF229002B0E0FB1A
:100E9A00A3E0FAA3E0F912013C640160037FFF2298
:100EAA00900001120155FF64036012EF6410600D97
:100EBA00EF64066008EF640460037FFF229000017C
:100ECA0012015524FC602B24FE6011240370379014
:100EDA0002B3E0FCA3E0FD121120802A9002B0E0E8
:100EEA00FBA3E0FAA3E0F9A3E0FCA3E0FD120F9F45
:100EFA0080149002B0E0FBA3E0FAA3E0F9A3E0FCBF
:080F0A00A3E0FD1211917F002C
:010F120022BC
:1018A900900326EBF0A3EAF0A3E9F090000074019D
:0218B900F0221B
:101843007E017F047D007B017A00790012025290B1
:0618530000017401F02207
:10178500900000E0601AA37401F0FB7A007903A3CE
:10179500E0FD7C00120E79E4900002F0900000F06C
:0117A5002221
:100F9F009002B5EBF0A3EAF0A3E9F0A3ECF0A3ED18
:010FAF00F051
:100FB0009002B5E0FBA3E0FAA3E0F9900002120171
:100FC00055FE9000031201557C002400FFEC3E907A
:100FD00002BAF0A3EFF07E007FF07D007B017A0182
:100FE00079041202529002B5E0FBA3E0FAA3E0F903
:100FF000900004120155FE9000051201557C00245A
:1010000000FFEC3E900104F0A3EFF09002BAE0FE86
:10101000A3E0FF7B017A0179049002C1E4F0A3040C
:09102000F012157A1218F07F009D
:0110290022A4
:1018F0007B017A0079037D087C001213477F002268
:081191009002B5ECF0A3EDF0B3
:10119900900002120155FE9000031201557C0024B3
:1011A90000FFEC3E9002B7F0A3EFF09000041201AB
:1011B90055FE9000051201552400FFEC3EFE9002F9
:1011C900B9F0A3EFF0D39478EE940040037FFF22A7
:1011D9007E007FF07D007B017A0179041202529032
:1011E90002B71212027B017A0179049002B9E0FC7C
:0811F900A3E0FD1209027F00D2
:0112010022CA
:100902009002BBEBF0A3EAF0A3E9F0A3ECF0A3EDB5
:01091200F0F4
:10091300E4A3F0A3F0A3F090000304F0A37404F0A5
:10092300ED25E0A3F0E49002C0F09002C0E0FFD315
:100933009002BFE09F9002BEE09400405B9002BB38
:10094300E0FBA3E0FAA3E0F99002C0E0FD75F0023A
:10095300A4F58285F0831201C3E5F0FF75F002ED83
:10096300A42406F582E5F03400F583EFF09002C08D
:10097300E0FF75F002A4F58285F0831201C3FE75D2
:10098300F002EFA42407F582E5F03400F583EEF0DE
:100993009002C0E004F080927B017A007903900218
:1009A300BFE025E0FF9002BEE033FEEF2403FDE449
:1009B3003EFC1210AD9002C1EEF0A3EFF0FD9002E9
:1009C300BFE025E0FB9002BEE033FA74062BF5820C
:1009D30074003AF583EDF09002C1E0FF74072BF544
:1009E3008274003AF583EFF07B017A007903900279
:0A09F300BFE09002BE12133A7F002D
:0109FD0022D7
:0407F20041032B0094
:10182C009002B0EFF090032B7401F0C2A9E4900386
:07183C0010F0A3F0D2A92275
:1018DF009002B0EFF0E490032BF0900310F0A3F020
:0118EF0022D6
:101814009002B0EFF0C3900311E09D900310E09CA0
:0818240040037F01227F002236
:1017A600204D4F444255532020636865636B206F7C
:0E17B6006B0020203078315A434C2020200058
:0F07F6004C030020202D2D5A5A434C2020200068
:0B173900F583E0FF1218CD7FC87E0092
:10174400D3EF9400EE940040147D6E7C00ED1D7088
:0D175400011CED4C70F7EF1F70E61E80E3E6
:011761002265
:070003007FA07E8602174476
:1018BB00C2C0C2C18FA07F057E00121744D2C2C224
:0218CB00C22237
:1018CD00D2C0C2C18FA07F057E00121744D2C2C202
:0218DD00C22225
:10186D007F381218BB7F0C1218BB7F061218BB7F76
:04187D00010218BB91
:1013F300E4FBF5B3F5B47596FFF595D2C312186DFA
:101403007F801218BBEBC3941174809480500BEB54
:101413009017A69312173C0B80EB7FC01218BBE406
:10142300FBEBC3940B74809480500E74002BF582F5
:09143300E434031217390B80E8C0
:01143C00228D
:0E09FE009002B0EBF0A3EAF0A3E9F0A3EDF055
:100A0C0078B47C027D017BFF7A1779B87E007F0C6D
:100A1C00120116E49002C4F09002B0E0FBA3E0FADD
:100A2C00A3E0F9120198FDACF0540F9002C0F0EC69
:100A3C00C4F854F0C8EDC4540F48540FA3F012017D
:100A4C0098ACF0EC540F9002C2F0ECC4540FA3F02D
:100A5C00E4FFFE74C02FF58274023EF583E0C3946C
:100A6C000A7480948074C0500E2FF58274023EF587
:100A7C0083E02430F0800C2FF58274023EF583E085
:100A8C002437F00FBF00010EEF64044E70C59002C6
:100A9C00C0E09002BBF09002C1E09002BAF090026C
:100AAC00C2E09002B9F09002C3E09002B8F07FC0AF
:100ABC001218BBE4FBEBC3940B74809480500E743F
:0D0ACC00B42BF582E434021217390B80E8D8
:010AD90022FA
:10170C00535443313557344B35365334004D4F44D5
:10171C004255535254552D2D5A5A434C004D4F445B
:0D172C004255535254552D2D5A5A434C002E
:0F16AF00C2C17596FFE4F595E0F5A07F147E00AB
:1016BE00E4FDFCC3ED9FEC9E5015E4FBFA0BBB0062
:0F16CE00010AEB64784A70F50DBD00010C80E451
:0116DD0022EA
:1017C400C2C2C2C0D2C11216BAD2C2E4F596F5950D
:0B17D400A9A01216BEC2C2E920E7E582
:0117DF0022E7
:1018810090032CEFF01217C4D2C2D2C01216AFC20D
:04189100C20216BEBB
:1018950090032DEFF01217C4D2C2C2C01216AFC208
:0418A500C20216BEA7
:0712D300900316EBF0AC07DD
:1012DA00ECFB7A0064017007ED248090031AF0EBAE
:1012EA0064024A7007ED249090031AF0EC640370CC
:1012FA0007ED248890031AF0EC64047007ED249833
:10130A0090031AF090031AE0FF121895900316E062
:10131A00601DA3E0FBA3E475F001120182A9F0FAB3
:0F132A0012013CFF121881900316E014F080DDD1
:011339002291
:10164C00D2C31216BA7F301218951216BA7F021234
:10165C0018951216BA7F0C1218951216BA7F06122C
:10166C0018951216BA7F801218951216BA7F0102BD
:02167C001895BF
:1015B000E4F5B3F5B412164C90031774FFF0A3745E
:1015C00017F0A3740CF07B0C7D017F021212D390F4
:1015D000031774FFF0A37417F0A37419F07B10E4E1
:0615E000FD7F040212D39E
:0E0ADA009002E8EBF0A3EAF0A3E9F0A3EDF040
:100AE80078EC7C027D017BFF7A1779297E007F10E4
:100AF8001201169002E8E0FBA3E0FAA3E0F9120164
:100B080098FDACF0540F9002FCF0ECC4F854F0C817
:100B1800EDC4540F48540FA3F0120198ACF0EC54F4
:100B28000F9002FEF0ECC4540FA3F0E4FFFE74FC37
:100B38002FF58274023EF583E0C3940A7480948092
:100B480074FC500E2FF58274023EF583E02430F0D9
:100B5800800C2FF58274023EF583E02437F00FBF36
:100B680000010EEF64044E70C59002FCE09002FA9A
:100B7800F09002FDE09002F9F09002FEE09002F899
:100B8800F09002FFE09002F7F09003177401F0A3D1
:100B98007402F0A374ECF07B10E4FD7F040212D31E
:03000000020F13D9
:0C0F1300787FE4F6D8FD758120020F5AAB
:10004600E709F608DFFA8046E709F208DFFA803E9C
:1000560088828C83E709F0A3DFFA8032E309F60889
:10006600DFFA8078E309F208DFFA807088828C83F1
:10007600E309F0A3DFFA806489828A83E0A3F608A5
:10008600DFFA805889828A83E0A3F208DFFA804C7F
:1000960080D280FA80C680D4806980F28033801056
:1000A60080A680EA809A80A880DA80E280CA8033BF
:1000B60089828A83ECFAE493A3C8C582C8CCC58337
:1000C600CCF0A3C8C582C8CCC583CCDFE9DEE78007
:1000D6000D89828A83E493A3F608DFF9ECFAA9F086
:1000E600EDFB2289828A83ECFAE0A3C8C582C8CCDC
:1000F600C583CCF0A3C8C582C8CCC583CCDFEADEF5
:10010600E880DB89828A83E493A3F208DFF980CC56
:1001160088F0EF60010E4E60C388F0ED2402B4044F
:100126000050B9F582EB2402B4040050AF232345F6
:0601360082239000967385
:10013C00BB010689828A83E0225002E722BBFE02C1
:09014C00E32289828A83E49322F4
:10015500BB010CE58229F582E5833AF583E022505F
:1001650006E92582F8E622BBFE06E92582F8E222A9
:0D017500E58229F582E5833AF583E49322C3
:10018200A3F8E0C5F025F0F0E58215827002158330
:06019200E0C838F0E8228D
:10019800BB010A89828A83E0F5F0A3E02250068732
:1001A800F009E71922BBFE07E3F5F009E3192289F4
:0B01B800828A83E493F5F07401932227
:1001C300BB0110E58229F582E5833AF583E0F5F07A
:1001D300A3E0225009E92582F886F008E622BBFE57
:1001E3000AE92582F8E2F5F008E222E5832AF5839D
:0801F300E993F5F0A3E9932262
:10148300C2D5E830E70FB2D5E4C39BFBE49AFAE494
:1014930099F9E498F8EC30E717B2D51214B91202AF
:1014A300BAE4C39BFBE49AFAE499F9E498F880035D
:1014B3001202BA30D50DE4C39FFFE49EFEE49DFD06
:0414C300E49CFC2287
:1001FB00EB9FF5F0EA9E42F0E99D42F0EC6480C87B
:06020B0064809845F0221A
:10021100E86010ECA2E713FCED13FDEE13FEEF1303
:04022100FFD8F022F0
:10022500D083D082F8E4937012740193700DA3A368
:1002350093F8740193F5828883E473740293B5F09F
:0D024500067403936860E9A3A3A3A380D807
:10025200EF4E6012EF60010EEDBB010B89828A83C3
:10026200F0A3DFFCDEFA2289F05007F709DFFCA9D0
:0C027200F022BBFEFCF309DFFCA9F02227
:100F1F0002000EE493A3F8E493A34003F68001F2DA
:100F2F0008DFF48029E493A3F85407240CC8C333D3
:100F3F00C4540F4420C8834004F456800146F6DFA2
:100F4F00E4800B0102040810204080900610E47E1C
:100F5F00019360BCA3FF543F30E509541FFEE49397
:100F6F00A360010ECF54C025E060A840B8E493A35E
:100F7F00FAE493A3F8E493A3C8C582C8CAC583CA89
:100F8F00F0A3C8C582C8CAC583CADFE9DEE780BE41
:0108050000F2
:10027E0075F008758200EF2FFFEE33FECD33CDCC37
:10028E0033CCC58233C5829BED9AEC99E5829840BA
:10029E000CF582EE9BFEED9AFDEC99FC0FD5F0D697
:1002AE00E4CEFBE4CDFAE4CCF9A88222B800C1B9C1
:1002BE000059BA002DEC8BF084CFCECDFCE5F0CBFF
:1002CE00F97818EF2FFFEE33FEED33FDEC33FCEB38
:1002DE0033FB10D703994004EB99FB0FD8E5E4F9F3
:1002EE00FA227818EF2FFFEE33FEED33FDEC33FCE0
:1002FE00C933C910D7059BE99A4007EC9BFCE99AD4
:10030E00F90FD8E0E4C9FAE4CCFB2275F010EF2F18
:10031E00FFEE33FEED33FDCC33CCC833C810D70718
:10032E009BEC9AE899400AED9BFDEC9AFCE899F853
:0E033E000FD5F0DAE4CDFBE4CCFAE4C8F922E6
:00000001FF
